:020000040800F2
:1000000090060020D9010008FB3400081F280008D2
:10001000F934000831090008953C00080000000090
:10002000000000000000000000000000A3360008EF
:10003000B90C000800000000AD350008A536000826
:10004000F3010008F3010008F3010008F3010008C0
:10005000F3010008F3010008BB0C0008F3010008DD
:10006000F3010008F3010008F3010008F3010008A0
:10007000F3010008F3010008F3010008F301000890
:10008000F3010008F3010008F3010008F301000880
:10009000F3010008F3010008F3010008F301000870
:1000A000F3010008F3010008F3010008F301000860
:1000B000F3010008F3010008F30100082D280008EF
:1000C00021280008F3010008F3010008F3010008EB
:1000D000F3010008F3010008F30100087D3C00086B
:1000E000F3010008F3010008F3010008F301000820
:1000F000F3010008F3010008F3010008F301000810
:10010000F3010008F3010008F3010008F3010008FF
:10011000F3010008F3010008F3010008F3010008EF
:10012000F3010008F3010008F3010008F3010008DF
:10013000F30100080000000000000000F3010008C7
:10014000F3010008F3010008F3010008F3010008BF
:10015000F3010008F3010008F3010008893C0008DE
:10016000F3010008F3010008F3010008F30100089F
:10017000F3010008F3010008F3010008000000008B
:1001800000000000F3010008000000000000000073
:10019000F30100080000000000000000F301000867
:1001A000000000000000000000000000F301000853
:1001B000F3010008F3010008F3010008F30100084F
:1001C000F3010008DFF80CD000F080FA0048004787
:1001D000FD4A000890060020064880470648004770
:1001E000FEE7FEE7FEE7FEE7FEE7FEE7FEE7FEE7E7
:1001F000FEE7FEE729370008C50100082DE9F05F9A
:100200000546002092469B46884606468146402485
:100210001BE0284641464746224600F071F8534607
:100220005A46C01A914110D311461846224600F092
:1002300058F82D1A67EB01084F462246012000218D
:1002400000F04FF817EB00094E41201EA4F1010405
:10025000DFDC484631462A464346BDE8F09FD2B22D
:1002600001E000F8012B491EFBD270470022F6E79F
:1002700010B513460A4604461946FFF7F0FF20461C
:1002800010BD421C10F8011B0029FBD1801A7047D9
:1002900000F0004230F000400AD0C10D01F560715D
:1002A000C0F3160042EA0151C208400711437047EB
:1002B00000200146704730B50B4601460020202241
:1002C000012409E021FA02F59D4205D303FA02F563
:1002D000491B04FA02F52844151EA2F10102F1DCC3
:1002E00030BD202A04DB203A00FA02F100207047DA
:1002F0009140C2F1200320FA03F319439040704764
:10030000202A04DB203A21FA02F00021704721FA6A
:1003100002F3D040C2F120029140084319467047D1
:1003200010B541000CD0C0F3C751962908DC7E29D6
:1003300009DC06DB410204D000F0004040F07E50B2
:1003400010BD002010BDC1F19604C4F1200100FAD7
:1003500001F1E04000F0DEF9A04010BD2DE9FE4FB4
:10036000804681EA0300C00F0C46009021F0004156
:1003700023F00045B8EB0200A94105D240462146D2
:1003800090461C460B46024623F00040104347D0DF
:10039000270DC7F30A00C3F30A510290401A0190D7
:1003A00040286BDAC3F3130040F4801B0098924698
:1003B00020B10023D2EB030A63EB0B0B01985946E3
:1003C000C0F140025046FFF78CFF06460D465046EE
:1003D0005946019A00F08CF910EB080061410024A5
:1003E00087EA115284EAE7731A4340D0009A62B355
:1003F000019A012A4FEA075215DC001B61EB02014A
:100400004FF0004202EA0752CDE90042001C41F5DC
:10041000801132462B4600F0C3F903B0BDE8F08FDF
:1004200040462146F9E7001B61EB0201001C41F543
:10043000801300185B412018A2F5001747EB030159
:1004400040EAD570B6196D4111E06D084FEA3606E5
:1004500045EAC0754FEA0752001B61EB0201001C20
:1004600041F5801149084FEA3000001951413246E8
:100470002B4603B0BDE8F04F00F083B9009801228D
:1004800040000023D0EB020263EBE07300982146AA
:100490004FEAE074B8EB000061EB0401E9E783F098
:1004A00000435BE781F0004158E72DE9FE4F81EA08
:1004B000030404F0004421F0004100944FF0000BCD
:1004C00023F0004350EA01045ED052EA03045BD0FB
:1004D000C3F30A54C1F30A552C44A4F2F334019433
:1004E000A0FB0254C1F3130141F48011C3F31303C1
:1004F00043F4801301FB024400FB034E840A970A75
:1005000044EA815447EA8357A4FB076802958D0AA1
:1005100005FB07854FEA932C04FB0C542705029D2D
:100520004FEA065847EA1637B5EB08056EEB070C9D
:10053000870E920E47EA811742EA8312A7FB020157
:10054000B6EB0B0164EB00042B0D43EA0C335E1891
:1005500044EB1C50DA465146E7FB0201C5F3130495
:100560004FEA0B3343EA14534FEA0432019C43EA47
:100570000603A4F10C040294009CCDE900B400F041
:100580000FF903B0BDE8F08F00200146F9E72DE92F
:10059000F04D81EA030404F0004B21F000451446BD
:1005A0004FF0000A23F0004150EA050220D054EA3F
:1005B00001021DD0C5F30A570246C5F31303C1F368
:1005C0001300C1F30A5640F4801543F48013A7EBDF
:1005D0000608101BD64608F2FD3873EB050002D35F
:1005E00008F1010801E092185B41B8F1000F03DA4D
:1005F00000200146BDE8F08D00204FF48011064632
:1006000084460EE0171B73EB050705D3121B63EB43
:10061000050306434CEA010C49084FEA30009218E2
:100620005B4150EA0107EDD152EA030012D082EAA1
:10063000040083EA0501084305D0101BAB4106D234
:100640000122002306E000224FF0004302E06FF099
:10065000010253101AEB06004CEB085110EB0A0094
:1006600041EB0B01BDE8F04D00F08BB8C1F30A522D
:10067000C1F3130140F2FF3341F480119A4202DAD0
:1006800000200146704740F233439A42A2F23342BF
:1006900002DC5242FFF734BEFFF723BE30B5041E22
:1006A00071F1000404DB4FF00044404264EB0101AF
:1006B000141E73F1000405DB1C464FF00043524248
:1006C00063EB0403994208BF904230BD064C074DCE
:1006D00006E0E06840F0010394E807009847103412
:1006E000AC42F6D3FFF772FDFC4B00081C4C00082F
:1006F000202A06DBCB17203A41FA02F043EAE073E6
:1007000006E041FA02F3D040C2F1200291400843D2
:10071000194670470029A8BF7047401C490008BF10
:1007200020F00100704710B4B0FA80FC00FA0CF021
:1007300050EA010404BF10BC704749B1CCF1200459
:1007400021FA04F411FA0CF118BF012121430843E6
:10075000A3EB0C01CB1D4FEA00614FEA102042BF12
:10076000002010BC704700EBC35010440029A4BF08
:1007700010BC7047401C490008BF20F0010010BCAD
:10078000704710B5141E73F1000408DA401C41F1E3
:10079000000192185B411A4301D120F0010010BD05
:1007A0002DE9F04D92469B4611B1B1FA81F202E07B
:1007B000B0FA80F220329046FFF793FD04460F46D0
:1007C00040EA0A0041EA0B0153465A46084313D057
:1007D000114653EA010019D0C8F140025046FFF714
:1007E0008FFD05460E46504659464246FFF779FDB5
:1007F000084305D0012004E020463946BDE8F08DCD
:100800000020054346EAE0762C4337430A98630507
:10081000E40AA0EB08000022FD0A44EA47540A302B
:1008200002D500200146E9E7010510196941DDE91B
:10083000084500196941BDE8F04DA2E7F0B51A4836
:10084000DFED1A0A9FED1A1A90ED000AAFB060EEC4
:10085000200A80EE810A10EE100AFFF719FD064605
:1008600014480F460068FFF713FD044612480D4672
:100870000068FFF70DFD114A0DF1180E92E80C10FB
:100880008EE80C108DE8F3000DA2962109A803F064
:1008900003FA09A8FFF7F5FC82B2642309A91548F9
:1008A00001F06CFF2FB0F0BD340000200000344395
:1008B000DB0F4940300000202C0000200400002005
:1008C000583A252E32662C20593A252E32662C2095
:1008D00054683A252E31662C204C5F433A25642C0F
:1008E00020525F433A25642C20555F433A25640D1E
:1008F0000A0000000002002001220249024801F023
:10090000CBBE0000000000200002002010B5074C04
:100910002069002809D000F003FC2169401AC8288A
:1009200003D900F0A3F80020206110BD00000020D2
:10093000FEE7000010B5B6EE001A2DED048B9FED1A
:10094000198ADFED198A9FED1A9AB0EE482AF0EE67
:10095000681ADFED160AB0EE490A164802F014FED6
:100960001448B0EE482AF0EE681AB6EE001ADFED31
:10097000120AB0EE490A203002F006FE9FED110A7D
:100980000C489FED0E2ADFED0E1AB0EE401AF0EE85
:10099000400A403002F0F8FDBDEC048BBDE8104089
:1009A00000F064B800C0794400C079C400009B43E3
:1009B000000048427400002000808E43CDCC4C3EA5
:1009C000CDCC4CBE00000000044A0023537001232C
:1009D0001370C2E9010102F007BC00003C000020D6
:1009E00010B5B4EE600A00201A4CF1EE10FA2DEDAD
:1009F000048B607024D1B5EEC00AF1EE10FA1FD05E
:100A000003202070144884ED030A9FED148A90EDB2
:100A1000000ADFED138A9FED139A20EE080AC0EE5C
:100A2000280A80EE890A03F01BFA20EE090A20EE5C
:100A3000280AC0EE080AC4ED040ABDEC048B10BD00
:100A400002202070084880ED030A2030C0ED030A20
:100A5000F3E700003C000020340000200000344395
:100A6000DB0F49400000B4427400002010B521485B
:100A700000212DED048BB6EE001A41709FED1E8A09
:100A8000017080ED038ADFED1D8A9FED1D9ADFED79
:100A90001E9A41608160B0EE682AF0EE491ADFEDDF
:100AA000190AB0EE690A194802F06EFD1748B0EE57
:100AB000682AF0EE491AB6EE001ADFED150AB0EE1C
:100AC000690A203002F060FD10489FED122ADFED28
:100AD000121AB0EE481AF0EE480AB0EE480A40305A
:100AE00002F052FDBDEC048B00210846BDE8104029
:100AF00002F07ABB3C0000200000000000C07944F6
:100B000000C079C400009B430000484274000020EC
:100B100000808E43CDCC4C3ECDCC4CBE10B5184C95
:100B2000207801282AD01A489FED161ADFED1A1AEC
:100B3000B5EEC00AC0EE010A9FED131A60EE810AFD
:100B40009FED121A60EE810A9FED121AF0EEE00A94
:100B5000C4ED050AD0ED000AF1EE10FAC4ED060A64
:100B600004DDF0EE410AB0EE610A03E0F0EE610A46
:100B7000B0EE410AFFF734FF0120607010BD0000A5
:100B80003C0000200000B443DB0F49409EEF273EAD
:100B90001C000020CDCCCCBDCDCCCC3D70B53B4CA9
:100BA0002DED028B20789FED3A8A032819D0022878
:100BB00069D16078F0B33748D4ED060A90ED000AA9
:100BC00030EE600AD4ED050AB0EEC00AB4EEE00AD9
:100BD000F1EE10FA34DBBDEC028BBDE87040FFF79C
:100BE00045BF2D4894ED040A2C49D0ED000A30EEA3
:100BF000600ADFED2B0A10EE100A884201DD30EEAC
:100C0000600A284910EE100A884201D930EE200A05
:100C10002648DFED250AC0ED030AF0EE480A02F08F
:100C20006DFCD4ED030A214830EEC01A403880ED47
:100C3000031A00E004E030EE800A203080ED030A61
:100C40001B48F0EE480A90ED000A1848403802F0C0
:100C500055FCBDEEC00A1748F0EE480A10EE105AD7
:100C600090ED000A1148203802F048FCBDEEC00AA1
:100C7000284610EE101AC4E90151BDEC028BBDE804
:100C8000704002F0B1BABDEC028B70BD3C00002098
:100C90000AD7233C1C00002034000020DB0F494011
:100CA000DB0FC940DB0F49C000000000B40000208A
:100CB00014000020180000207047012000F030B917
:100CC00010B50E4C9FED0C0A84ED000A84ED010A6C
:100CD00084ED020A84ED030A84ED040A84ED050A1A
:100CE00084ED060A84ED070A9FED050A84ED080AE3
:100CF00000F016FA606210BD000000001400002031
:100D0000DB0FC93F70B52DED028B00F009FA494C9D
:100D1000616A6062451A7CD0474802F0BCFC08EE6C
:100D2000100A464802F0B7FC00EE105AB8EE400A2E
:100D3000DFED430AC0EE201AF8EEC80A9FED411A13
:100D400080EE810A9FED402A414960EE020A00EEE2
:100D5000100AF8EEC02A82EE810A20EE020A94ED13
:100D6000022A32EE202A84ED022A94ED032A32EE82
:100D7000002A84ED032A80EEA12A84ED002A80EE69
:100D8000212AF8EEC81A84ED012A81EE812AF0EEBC
:100D9000C21A94ED042A71EE821AC4ED041A01EE0F
:100DA000900AF8EEE11A81EE812AD4ED051AB0EE30
:100DB000C21A31EE211AF6EE001A84ED051A30EE51
:100DC000801A70EE600A21EE218A9FED201A80EED3
:100DD000810AD4ED080A30EE800ADFED1E0A10EE1B
:100DE000100A84ED080A884203DD30EE600A84EDC3
:100DF000080A10EE100A1849884203D930EE200A7A
:100E000084ED080A02F084FFD4ED060A48EE000AD9
:100E100000E00BE0C4ED060A94ED080A03F06EF85A
:100E2000D4ED070A48EE000AC4ED070ABDEC028BB8
:100E300070BD00001400002028010020B80100202F
:100E400000007A440000C344D589573E9EEF273EF8
:100E5000DB0F4940DB0FC940DB0F49C072B6FEE72C
:100E60002DE9F0410446876D00F05AF9064694F8E2
:100E700035000025022806D08020606584F83450B3
:100E80000120BDE8F0812068016821F016010160B1
:100E90002068416921F080014161206C08B9A06C93
:100EA00020B12068016821F0080101602068016814
:100EB00021F0010101600CE000F032F9801B0528EF
:100EC00007D920206065032084F8350084F8345069
:100ED000D7E720680068C007EED194F85C103F2087
:100EE0008840B860012084F8350084F83450002030
:100EF000C7E790F83510022903D080214165012011
:100F00007047052180F835100068016821F0010163
:100F100001600020704790F835007047704700006E
:100F2000044910B50A68024202D00860FFF7F6FFD4
:100F300010BD0000143C01402DE9F84FDFF8ACA1D2
:100F40000022012403254FF00F090AF1040BAAF136
:100F5000040E00BF0B6804FA02F63340B3426ED1B0
:100F60000F7907F00307012F01D0022F16D18768F0
:100F70004FEA420805FA08FC27EA0C07D1F80CC032
:100F80000CFA08FC4CEA070CC0F808C04768B743E5
:100F90000E79C6F3001696403E4346600E79F6433E
:100FA000B6070AD0C6684FEA420C05FA0CF7BE43F2
:100FB0008F6807FA0CF73743C7600E7906F003060F
:100FC000022E10D1D60800EB8608D8F8206057070B
:100FD0004FEAD76C09FA0CF7BE430F6907FA0CF712
:100FE0003743C8F8207006684FEA420C05FA0CF740
:100FF000BE430F7907F0030707FA0CF73743076082
:101000004E6816F4403F6BD0394E376847F480473E
:101010003760366822F0030706F480460096354EA6
:1010200007EB060CDCF8086897074FEA177809FA0F
:1010300008F7BE43304FB84202D100271FE04FE00F
:101040002E4FB84201D1012719E02D4FB84201D1EE
:10105000022714E02B4FB84201D103270FE02A4F9B
:10106000B84201D104270AE0284FB84201D1052730
:1010700005E0274FB84201D1062700E0072707FA0D
:1010800008F73743CCF80878DAF800605746D1F80B
:1010900004C09E435FEACC2C00D51E433E60DBF8C3
:1010A00000605F46D1F804C09E435FEA8C2C00D5F7
:1010B0001E433E60DEF800607746D1F804C09E43D0
:1010C0005FEA8C3C00D51E433E60084F083F3E68F7
:1010D000D1F804C09E435FEACC3C00D51E433E607D
:1010E000521C102AFFF436AFBDE8F88F083C0140CF
:1010F0004438024000300140000002400004024039
:1011000000080240000C024000100240001402409F
:10111000001802400AB1816170470904FBE7000032
:1011200001488068704700006000002070477047E9
:101130002DE9F041016804464A694E6890F83E0086
:101140000025D743FA0506D4F243D20503D46FF441
:10115000807201254A61B90508D4F143C90505D457
:1011600022686FF4007145F002055161790525D4BC
:10117000F143C90522D4638D94F83D10226B2028D9
:1011800008D13BB9212910D029290ED0282901D115
:10119000212A0AD022686FF48061516145F004056C
:1011A000102806D0402804D008E0204601F026FF91
:1011B00004E02068016841F400710160380508D43A
:1011C000F043C00505D421686FF4006045F00805C0
:1011D0004861002D07D0206C284320642046BDE8DC
:1011E000F04101F08FBBBDE8F0812DE9F0470268C6
:1011F00000215368C66A90F83E4090F83D50102C8C
:1012000012D0402C10D0046C002C7DD05469E443E3
:10121000A6077AD4DE43B60577D4036C03B191698F
:10122000BDE8F04701F0C6BE976951694FF42A0C3A
:10123000C9435FEAC1784FF02A4904D066452AD0F5
:101240004E4528D010E0DE43B6050DD4C16A614595
:1012500001D1012103E0C16A494501D10821C162E0
:10126000BDE8F04701F00CBE0E0716D4DE43B6050C
:1012700013D4416CC9B21161416B09B1C96B29B971
:10128000816B002907D0C96B002904D00068416830
:1012900041F400614160BDE8F0878E0706D4DE436B
:1012A000B60503D4BDE8F04701F05EBDFE435268C9
:1012B00076074FEA02521DD4002AECDB0A0608D456
:1012C000DA43520505D4490705D5BDE8F04701F0DA
:1012D000EFBC4907DFD4D9438905DCD4212D05D0E3
:1012E000402CD8D1BDE8F04701F010BEBDE8F04772
:1012F00001F09CBC002ACEDB4A060BD4DA4352052F
:1013000008D4490708D501E00DE00EE0BDE8F0473C
:1013100001F012BC4907BED4D9438905BBD4BDE84E
:10132000F04701F09BBB916970E7E10606D4D94311
:10133000890503D4BDE8F04701F0A8BE2821212D7E
:1013400027D0292D25D0650655D4DD436D0552D40F
:10135000640752D590F83D30448D002C9BD0126923
:10136000446A2270426A521C4262428D521E428579
:10137000428D002A8FD12A2B8DD10268536823F425
:10138000806353602222026380F83D1000F056F91A
:1013900081E7250623D4DD436D0520D4640720D5DD
:1013A00090F83D30448D002CF2D0446A24781461CA
:1013B000426A521C4262428D521E4285428D002A70
:1013C000E6D1292BE4D10268536823F4806353608B
:1013D0002122026380F83D1000F031F95BE76107DC
:1013E000D6D4D9438905D3D4418D0029D0D0416AC0
:1013F000097811610AE06107CAD4D9438905C7D4C5
:10140000418D0029C4D01169426A1170416A491C9A
:101410004162418D491E41853DE7704770B504002A
:1014200025D094F83D00002520B984F83C50204692
:1014300000F0BEF8242084F83D002068016821F007
:10144000010101602068016841F4004101602068E9
:10145000016821F40041016000F026FA4D4A6168FC
:10146000914201D84C4900E04C49884201D2012008
:1014700070BD4B492368B0FBF1F15E6826F03F0672
:101480000E435E606368934206D94FF496735943E6
:101490004FF47A73B1FBF3F12368491C1E6A26F0FE
:1014A0003F06314319626168914210D84900401EDD
:1014B000B0FBF1F2521CC2F30B02042A01D2042049
:1014C00022E0B0FBF1F0401CC0F30B001CE0A2686E
:1014D000F2B301EBC10303EB0116431EB3FBF6F3BA
:1014E0005B1C43F480431B0549D092B301EBC1025E
:1014F00002EB0111401EB0FBF1F0401CC0F30B00E9
:1015000040F4804040F400402168CA694CF6FF7303
:101510009A431043C861D4E9071001432068026868
:1015200022F0C00211430160D4E9030101432068A5
:10153000826848F2FF339A4311438160D4E9050180
:1015400008432168CA6822F0FF021043C86001E026
:101550000EE016E02068016841F001010160256499
:10156000202084F83D00256384F83E50002070BDA3
:1015700001EB4106431EB3FBF6F35B1CB3E701200E
:10158000C2E701EB4101401EB0FBF1F0401CC0F38B
:101590000B00B7E7A086010080841E0000093D0013
:1015A00040420F0070477047704770477047000017
:1015B00010B586B0044614216846FEF757FE1C4954
:1015C0002068884231D11B480021026842F00202A3
:1015D0000260006800F0020005904FF44070009037
:1015E0001220CDE9010103200390042004906946F4
:1015F0001148FFF7A1FC0F481030016841F40011B9
:1016000001600068002200F40010059011461F20C0
:1016100000F07EF81F2000F06DF800221146202017
:1016200000F076F8202000F065F806B010BD00004C
:1016300000540040303802400004024070477047B8
:101640000248816802781144816070476000002080
:101650000B4810B5016841F400710160016841F464
:1016600080610160016841F480710160032000F035
:101670006FF80F2000F006F800F024F8002010BDED
:10168000003C024070B50D4D04464FF47A71287845
:10169000B1FBF0F00A490968B1FBF0F000F03CFB47
:1016A00048B9102C07D200222146501E00F030F815
:1016B00000206C6070BD012070BD00006000002043
:1016C0006C0000200A4808B5016841F480410160BF
:1016D000006800F4804000900548001F016841F058
:1016E00080510160006800F08050009008BD00004B
:1016F00044380240002809DB00F01F02012191401C
:101700004009800000F1E020C0F80011704700009F
:10171000F0B40E4B1B680C46C3F30223C3F107055C
:10172000042D00D90425191D072901D2002300E04A
:10173000DB1E012606FA05F1491E214099409E4014
:10174000761E16403143F0BC02F0D1BA0CED00E039
:10175000064900F0070208684FF6FF03184040EA08
:101760000220034A10430860704700000CED00E0BF
:101770000000FA052DE9F0470E46050065D0DFF8B8
:101780001481D8F80000F7B200F00F00B04207D281
:1017900088F80070D8F8000000F00F00B04254D173
:1017A00028683D4C810712D5400703D5206840F4D6
:1017B000E05020602878000703D5206840F460409E
:1017C00020602068A96820F0F00008432060287895
:1017D000C0072DD0304968680839012812D0022886
:1017E00013D0032811D00968890700292DDA216850
:1017F00021F0030101432160FFF792FC814641F291
:10180000883A0EE009688903EFE709688901ECE787
:10181000FFF786FCA0EB0901514502D90320BDE882
:10182000F0872068696800F00C00B0EB810FEFD101
:10183000D8F80010404601F00F01B14207D90770F7
:10184000006800F00F00B04201D00120E7E72878DF
:10185000400705D52068E96820F4E050084320607F
:101860002878000706D52068296920F4604040EAFE
:10187000C100206000F038F82168084AC1F3031164
:10188000515CC8400649086006480068FFF7FAFE48
:101890000020C4E7003C024008380240C44B000866
:1018A0006C000020640000200448054900680968B5
:1018B000044AC1F38221515CC84070476C0000208B
:1018C00008380240D44B00080448054900680968FC
:1018D000044AC1F34231515CC84070476C0000209B
:1018E00008380240D44B0008224810B5006810F0B8
:1018F0000C02214815D02149042A11D01D4C241F67
:10190000082A0FD00C2A0CD12268236802F03F026B
:101910005B0221D52068C0F38810A0FB010120E004
:10192000084610BD2268236802F03F025B0205D51D
:101930002068C0F38810A0FB010104E02168C1F316
:101940008811A1FB00010023FEF758FC2168C1F3B8
:101950000141491C49000AE02168C1F38811A1FB3B
:1019600000010023FEF74AFC2168C1F30271B0FBBD
:10197000F1F010BD083802400024F40040787D01E9
:101980002DE9F84F04007DD0DFF878B32078ABF173
:101990000407C007A7F1040550D0DBF80010584633
:1019A000C1F3810101290FD00168C1F3810102292E
:1019B00002D13968490207D40068C0F381000328C6
:1019C00009D13868400206D52868800336D560689A
:1019D0000028D8D032E06068B0F5803F10D0B0F574
:1019E000A02F286810D020F480302860286820F4C8
:1019F000802028606068A0B1FFF792FB06460CE0EB
:101A0000286840F48030F4E740F480202860F7E74D
:101A1000FFF786FB801B642876D828688003F7D5FB
:101A20000CE0FFF77DFB064605E000BFFFF778FB03
:101A3000801B6428F0D828688003F7D42078DFF86A
:101A4000C89280074FF0000A44D5DBF800105846D2
:101A500011F00C0F0FD00168C1F38101022902D1EE
:101A60003968490207D50068C0F3810003280AD10C
:101A70003868400207D42868800715D5E068012837
:101A800000D111E03AE1E068B0B10120C9F80000EE
:101A9000FFF746FB064604E0FFF742FB801B0228E7
:101AA000BAD828688007F7D52868216920F0F8009F
:101AB00040EAC10028600DE0C9F800A0FFF730FB44
:101AC000064604E0FFF72CFB801B02281CD8286880
:101AD0008007F7D42078000727D5DFF828828B48C5
:101AE000616908F16C0881B101210160FFF718FB01
:101AF000064604E0FFF714FB801B022804D8D8F840
:101B000000008007F6D510E089E0C0F800A0FFF7DC
:101B100007FB064605E000BFFFF702FB801B02281B
:101B20007DD8D8F800008007F6D42078400769D522
:101B300074484FF0000838300068C0000BD471487A
:101B40003830016841F08051016000684FF00108B1
:101B500000F0805000906E4E3068C00511D430689F
:101B600040F480703060FFF7DBFA009006E000BFC1
:101B7000FFF7D6FA0099401A022850D83068C005FD
:101B8000F6D5604EA068683601280FD00528306869
:101B900010D020F001003060306820F00400306088
:101BA000A068B8B1FFF7BCFA00900FE0306840F0D1
:101BB0000100F4E740F004003060F7E7FFF7B0FA07
:101BC0000099411A41F28830814264D83068800718
:101BD000F4D50EE0FFF7A4FA009007E0FFF7A0FAB3
:101BE0000099411A41F28830814254D83068800708
:101BF000F4D4B8F1000F05D042483830016821F024
:101C000080510160A069A8B3DBF80010C1F3810125
:101C1000022947D00228C9F860A005D000E03AE0C8
:101C2000FFF77EFA044639E0FFF77AFA064604E049
:101C3000FFF776FA801B02282DD828688001F7D498
:101C4000F4E907010843E168324A490802EB01411F
:101C5000A26841EA82110843217C40EA0160217DAB
:101C600040EA017038600120C9F86000FFF758FAB7
:101C7000044606E044E000BFFFF752FA001B0228CA
:101C800009D828688001F7D53AE000BFFFF748FA85
:101C9000001B022802D90320BDE8F88F28688001C4
:101CA000F4D42DE00128F7D03868E26900F480010F
:101CB000914223D1226A00F03F0191421ED147F6A2
:101CC000C071626A0140B1EB821F17D1A26A4FF066
:101CD000FF3300F4403103EB5202B1EB024F0DD160
:101CE00094F82C2000F07061B1EB026F06D194F8EB
:101CF000301000F0E040B0EB017F01D00120CBE7D5
:101D00000020C9E70838024000004742800E4742E1
:101D1000007000400000FFFF10B5401EB0F1807F52
:101D200001D3012010BD4FF0E02460610F21601746
:101D300001F0DDFF0020A06107202061002010BD20
:101D400070B590F83C20012A32D0012480F83C4044
:101D5000022280F83D2003685A689D6822F07006D0
:101D60000A6832435A60134B02689A4214D0B2F1A7
:101D7000804F11D0104B9A420ED0104B9A420BD08C
:101D80000F4B9A4208D00F4B9A4205D00E4B9A4205
:101D900002D00E4B9A4204D1496825F080031943C2
:101DA000916080F83D40002180F83C10084670BDED
:101DB000022070BD00000140000400400008004007
:101DC000000C0040000401400040014000180040A9
:101DD0002DE9F0410D46040003D094F83D0018B100
:101DE00008E00120BDE8F081002084F83C00204696
:101DF00000F040F8022084F83D002068816844F239
:101E0000070291438160211D206801F095FC226842
:101E100090689169166A2B68AF69034340F20330FA
:101E2000814341EA0721A868EF6908434FF6FC4166
:101E30008843E96840EA0720014328692F6A0001C6
:101E400040EA0730084369686D6926F0AA0646EA49
:101E50000515294393602268906154F8460B01628E
:101E6000012004F81F09E0752076E0762077A07540
:101E70000020B7E730B587B0044614216846FEF766
:101E8000F5F92148246800221F4910380223B4F1D3
:101E9000804F1FD01D4DAC421AD10C6844F0040491
:101EA0000C60096801F004010591016841F002012C
:101EB00001600068694600F002000590C0200090B3
:101EC000CDE901321248CDE9032300BFFFF734F812
:101ED00007B030BD0C6844F001040C60096801F0E3
:101EE00001010591016841F0010101600068694646
:101EF00000F00100059003200090CDE9013201209F
:101F0000CDE903200348E1E74038024000080040E3
:101F1000000402400000024070B590F83E600446A4
:101F200090F83F5090F8423090F84320022021B1C1
:101F300004290ED0012E1BD114E0012E18D1012B43
:101F400016D184F83E0084F8420001220021206866
:101F500020E0012D0CD1012A0AD184F83F0084F839
:101F6000430014E0012D03D1012B01D1012A01D03E
:101F7000012070BD84F83E0084F83F0084F84200E0
:101F800084F8430001220021206801F03DFC012279
:101F90000421206801F038FC2068016841F001014B
:101FA0000160002070BD000030B587B004461421E8
:101FB0006846FEF75BF916492068884226D1154825
:101FC0000024016841F001010160016801F0010194
:101FD0000591016841F0020101600068022500F0EE
:101FE00002000590C0200090CDE9015469460A48DE
:101FF000CDE90345FEF7A0FF03200090CDE9015491
:1020000069460648CDE90345FEF796FF07B030BDA7
:10201000000400403038024000000240000402404A
:1020200070B5044690F83C0000260D4601280FD0FC
:10203000012084F83C006AB1042A1DD0082A2FD060
:102040000C2A3FD00126002084F83C00304670BDA9
:10205000022070BD206801F0E5FB2068816941F035
:10206000080181612068816921F004018161206893
:1020700081692A69114311E0206801F003FC20689E
:10208000816941F4006181612068816921F4806186
:102090008161206881692A6941EA02218161D2E770
:1020A000206801F025FC2068C16941F00801C16188
:1020B0002068C16921F00401C1612068C1692A69F1
:1020C000114311E0206801F047FC2068C16941F428
:1020D0000061C1612068C16921F48061C16120682B
:1020E000C1692A6941EA0221C161ACE710B5040067
:1020F00003D094F83D0010B107E0012010BD00208E
:1021000084F83C00204600F01FF8022084F83D00CF
:10211000211D206801F010FB012084F8460084F89E
:102120003E0084F83F0084F8400084F8410084F8C1
:10213000420084F8430084F8440084F8450084F8A1
:102140003D00002010BD000008B500680649884227
:1021500008D10648016841F002010160006800F002
:102160000200009008BD000000040040403802401A
:1021700010B50446022249B104290ED0082913D013
:1021800094F84100012816D0012010BD94F83E00BB
:102190000128F9D184F83E200FE094F83F0001288F
:1021A000F2D184F83F2008E094F840000128EBD1F8
:1021B00084F8402001E084F841200122206801F0E9
:1021C00023FB16492068164A884201D0904203D169
:1021D000436C43F4004343642068884213D0B0F159
:1021E000804F10D00F4988420DD00F4988420AD045
:1021F0000E49884207D0904205D00D49884202D04E
:102200000C49884204D1816801F00701062903D0F6
:10221000016841F001010160002010BD0000014093
:10222000000401400004004000080040000C004091
:10223000004001400018004070477047F8B5016841
:1022400004460868CA684B6910F00F0F4FF000058C
:1022500059D003F0010602F49077374365D0C107E7
:1022600005D0D10503D5616C41F0010161644107DE
:1022700005D5D90703D0616C41F002016164810783
:1022800005D5D90703D0616C41F0040161640107F1
:1022900007D502F02001314303D0616C41F0080101
:1022A0006164616C00293AD0800604D5900602D59D
:1022B000204601F0A7FB20684069616CC0F38010E4
:1022C000090700D460B3204601F075FB206840691F
:1022D000400621D52068143050E8001F21F040014D
:1022E00040E80012002AF5D1E06BA8B172490165FF
:1022F000E06BFEF7FEFD002811D0E06B016D01B030
:10230000BDE8F040084783060FD593060DD520465B
:10231000BDE8F84001F076BB2046FFF78EFFF8BD20
:102320002046FFF78AFF6564F8BD266B2023012E47
:102330007ED1C6067CD5D6067AD508684868009056
:1023400048694FF0020640064DD5E26B10684068C0
:102350004FF480770004000C3AD0A18D814237D928
:10236000E085D069B8422DD020680C3050E8001FBD
:1023700021F4807140E80012002AF5D12068143061
:1023800050E8001F21F0010140E80012002AF5D1B9
:102390002068143050E8001F21F0400140E800128E
:1023A000002AF5D184F84230256320680C3050E8CB
:1023B000001F21F0100140E80012002AF5D1E06B67
:1023C000FEF74EFD6663A08DE18D401A81B206E0F6
:1023D000A18D8142A8D1D069B842A5D166632046BB
:1023E000FFF72AFFF8BDA08DE18D401A81B2E08D84
:1023F0000028F7D00029F5D020680C3050E8002FD5
:1024000022F4907240E80027002FF5D120681430A4
:1024100050E8002F22F0010240E80027002FF5D1FC
:1024200084F84230256320680C3050E8002F00E02B
:1024300006E022F0100240E80023002BF3D1CDE7A4
:1024400005062BD5150629D594F841002128C9D1B8
:10245000A068B0F5805F01D12069B0B1206A411C4D
:102460002162216800784860E08C401E0004000C66
:10247000E084B7D12068C16821F08001C160206884
:10248000C16841F04001C160F8BD206A0088C0F316
:1024900008004860206A801C2062E5E74006F3D50A
:1024A0005006F1D5CA68204622F04002CA6084F87E
:1024B000413000F0B3F9F8BDA939000870B5040047
:1024C00004D094F84100002510B106E0012070BD51
:1024D00084F84050204600F023F8242084F841007E
:1024E0002068C16821F40051C160204601F0ECFA77
:1024F0002068016921F4904101612068416921F05F
:102500002A0141612068C16841F40051C1606564DD
:10251000202084F8410084F842006563002070BDEB
:1025200070B586B0044614216846FDF79FFE2A4E1A
:1025300023680021294A022403252948B34222D1D5
:10254000264B10331E6846F480261E601B6803F479
:1025500080230593136843F004031360126802F0AC
:1025600004020592AA020092CDE901410721CDE9BA
:1025700003516946FEF7E0FC002211462720FFF7D1
:10258000C7F8272024E0174EB34223D1134B14334E
:102590001E6846F020061E601B6803F020030593AA
:1025A000136843F004031360126802F004020592FA
:1025B000C0220092CDE901410821CDE903516946CD
:1025C000FEF7BAFC002211464720FFF7A1F847208A
:1025D000FFF790F806B070BD004800403038024068
:1025E00000080240001401402DE9F84F044690F81D
:1025F00042009A4616460D46202802D00220BDE829
:10260000F88FB5B1AEB100206064222184F8421089
:102610002063FEF785FDA6858146E685A0684FF418
:1026200080582027404501D1206920B12E46002541
:1026300029E00120E3E7002625E04B460022202187
:102640002046CDF800A001F0E0FA18B184F84270FD
:102650000320D4E726B1A06840451AD038B108E07D
:1026600020684068C0F3080025F8020B08E02069E4
:1026700078B12068406800F07F0000BF06F8010BC9
:10268000E08D401EE085E08D0028D6D184F84270B0
:10269000B5E720684068F1E790F84230202B01D080
:1026A0000220704721B11AB10023036301F092BAEE
:1026B0000120704710B50068284988424CD1284C49
:1026C0002278712A25D00ADC6FF02C00612A17D0FD
:1026D000642A17D0652A24D0702A34D131E0732AB5
:1026E00007D0772A02D07A2A2DD122E09FED1D0A49
:1026F00001E09FED1D0AF0EE400AFEF771F905E0DA
:102700002D2101E001462D20FEF75EF9FEF708FDC0
:102710001AE09FED160AFEF701FA6068401C60603F
:1027200011E09FED130AFEF7F9F9A068401CA060C4
:1027300009E09FED100AFEF7F1F9E068401CE06047
:1027400001E0FEF793F900202061BDE8104001226E
:1027500003490948FFF7A0BF10BD00000048004032
:10276000000000209A99993E9A9999BE0000C0C233
:102770000000AA4200004843000200202DE9F8436F
:10278000044690F84100984616460D46202802D08F
:102790000220BDE8F88385B17EB10020606421206D
:1027A00084F84100FEF7BCFCA6848146E684A0685C
:1027B0002027B0F5805F02D003E00120E9E720691F
:1027C00010B12E4600250EE000260CE080212046A8
:1027D00001F01BFAA8B9C6B116F8010B21684860D0
:1027E000E08C401EE084E08C4B464FF00002CDF8B8
:1027F00000800028EAD14FF04001204601F005FAA0
:1028000040B184F841700320C3E735F8020BC0F3F0
:102810000800E3E784F841700020BAE77047FEE75C
:102820000148FEF785BC0000D40000200148FEF7F7
:10283000DCBC0000D400002038B5806B002190F88B
:102840003D202B4B46F2A8141B68B3FBF4F3C3EBFB
:10285000C30303EB830300933BB15B1E0093036848
:102860001B689B0505D5009BF6E7036C43F020032E
:102870000364436B03B1D963836B03B1D96303680A
:102880001C6824F480641C604185436B03B11965A6
:10289000836B03B1196503681C6824F001041C6094
:1028A00090F83D402023602C0BD0282434EA02020B
:1028B0000FD080F83D3080F83E1000BFFEF7ADFD30
:1028C00038BD80F83D3080F83E100164FEF72EFCE4
:1028D00038BD0268136843F001031360026813688F
:1028E00043F480631360016380F83D40E6E7000035
:1028F0006C00002000684169C943090601D4002129
:102900000161704770B5044690F83D0094F83E10A0
:10291000102901D0402906D1222804D121680A6853
:1029200022F400620A60282131EA00024FF000051B
:102930004FF0200626D021684968090505D4602893
:1029400003D084F83D6084F83E50256320684168D8
:10295000090537D5416821F400614160606B90F84A
:1029600035203C49012A11D00165606BFEF7C1FAA0
:1029700038B32068016821F00101016084F83D60EE
:10298000606B1CE0256384F83D10DFE7A06B0165F8
:10299000A06BFEF7AEFAA0B120684169C9434906B1
:1029A00005D40069616A0870606A401C6062206832
:1029B000016821F00101016084F83D60A06B016DA8
:1029C000884710E094F83D10602910D04169C94350
:1029D000490605D40069616A0870606A401C60623B
:1029E0002046FEF71AFD206CC1071CD115E084F8C3
:1029F0003D6025644169C943490605D40069616A9F
:102A00000870606A401C60622068016821F0010162
:102A100001602046FEF78AFBE5E7810703D4410702
:102A200001D4000704D52068416821F4E0614160C9
:102A300094F83D00216C49070BD5282809D1064898
:102A4000E062256384F83D6084F83E502046FEF73E
:102A5000A9FD70BD392800080000FFFF10B5C26A4B
:102A6000438D0168042B06D0438D032B08D0438D82
:102A7000022B1DD012E04A6822F480624A600CE00A
:102A80004B6823F480634B60042A06D0022A04D0EA
:102A900001680A6822F480620A6001680969426A72
:102AA0001170416A491C4162418D491E418510BD2A
:102AB000012A34D0102A32D0042A34D0022A32D04B
:102AC0000B6843F400730B6001680969436A19706D
:102AD000416A491C4162438D5B1E438503681B6943
:102AE0000B70416A491C4162418D491E4185016854
:102AF0004B6823F440734B60202180F83D1090F820
:102B00003E300021402B80F83E1010D0082A02D021
:102B1000202A00D012210163FEF745FD10BD0B688D
:102B200023F48063CFE70B6843F48063CBE7016352
:102B3000FEF73BFD10BD000038B590F83D1022298E
:102B400010D1C36A418D03290DD901680969426A10
:102B50001170416A491C4162418D491E4185418D78
:102B6000032906D038BDC26A022A02D0012906D044
:102B700029B10068416821F48061416038BD2A4A6A
:102B800046F2A81400211268B2FBF4F202EB8202B2
:102B9000009202682024009D6D1E009526D01568C5
:102BA000AD05F8D4156825F4806515600268556890
:102BB00025F4E065556002681269456A2A70426A28
:102BC000521C4262428D521E428580F83D4090F870
:102BD0003E2080F83E10402A21D0082B02D0202B26
:102BE00000D012210163FEF7DEFC38BD036C43F018
:102BF00020030364536823F4E0635360026812699E
:102C0000436A1A70426A521C4262428D521E4285C9
:102C100080F83D4080F83E10FEF7FFFB38BD0163B1
:102C2000FEF7C3FC38BD00006C00002010B5C26A7E
:102C300090F83D1021290BD1418D51B1416A0268B4
:102C400009781161416A491C4162418D491E4185E3
:102C500010BD20230021082A13D0202A11D012F5FC
:102C6000803F0ED00268546824F4E064546011225E
:102C7000026380F83E1080F83D3000BFFEF794FC00
:102C800010BD0268546824F4E0645460026814685B
:102C900044F400741460016380F83D3090F83E20E5
:102CA00080F83E10402AE9D1FEF780FC10BD0000FC
:102CB00010B590F83D1090F83E30C26A048DB4B162
:102CC000212903D0402B11D122290FD1418DE1B30D
:102CD00090F83E10402942D0416A0268097811619B
:102CE000416A491C4162418D491E418510BD21291F
:102CF000E8D120230021082A13D0202A11D012F570
:102D0000803F0ED00268546824F4E06454601122BD
:102D1000026380F83E1080F83D3000BFFEF744FCAF
:102D200010BD0268546824F4E064546002681468BA
:102D300044F400741460016380F83D3090F83E2044
:102D400080F83E10402AE9D100E002E0FEF72EFCB8
:102D500010BD0068416821F48061416010BDBDE88C
:102D6000104000F0D3B8000078B590F83E50C26A29
:102D7000036B90F83D6000240168222E7AD1066D25
:102D80000EB9402D76D0056D1DB90569B5F5404FDA
:102D900009D0458D05B3468D384D012E0ED0438D9B
:102DA000022B3AD05DE04A698A6900920A6842F4CF
:102DB00080720A60016D491C016578BDAA4213D179
:102DC0000A6822F480620A6001684A68120503D525
:102DD0000A6822F4806216E04A698A6900920A68E9
:102DE00042F400720A6039E0082A10D0202A0ED07E
:102DF000122B0AD0042A03D0022A01D0102AE7D1CC
:102E00000A6842F480620A6024E0012AE0D00A687D
:102E100022F480620A600168DEE7042A21D0022AD7
:102E20001FD0102A1DD00B6823F480630B6001684B
:102E30000B6843F400630B6001684B681B0509D500
:102E4000AA4212D0012A10D0082A0ED0102A0CD083
:102E5000202A0AD001684A6989690091046578BD11
:102E600008E00B6843F48063E5E74A6842F4805267
:102E70004A60EFE7486988690090F0E70000FFFFCB
:102E800090F83E10402910D00169B1F5804F19D05B
:102E9000016DA9B3016D012910D1416C5FF0F10200
:102EA00001F4407142EAD11106E0016D0029416C44
:102EB00005D0C9B241F0010100680161704701F01D
:102EC000FE01F9E790F83D102129416C09D0C9B203
:102ED00041F0010102681161416B29B1C96B49B927
:102EE00002E001F0FE01F5E7816B0029E6D0C96B35
:102EF0000029E3D00068416841F4006141607047F7
:102F0000FFE7416CF02201F44071CBE710B590F877
:102F10003D10026D4AB1026D012A14D0026D022AE1
:102F200016D0BDE81040FFF7E5BCC16C0129816CEB
:102F300002D0C1F3072108E00268C9B21161016D36
:102F4000891C016510BD816CC9B20268116123E062
:102F500022291CD0428D0AB1212920D0428D002A7D
:102F6000F0D12129EED101684A6822F4E0624A607A
:102F700001680A6842F400720A600021016320229D
:102F800080F83D2080F83E10FEF710FB10BD016870
:102F90000A6842F480720A60016D491CD1E7416AF7
:102FA000026809781161416A491C4162418D491EDC
:102FB000418510BD38B50C4690F83D2000212825EC
:102FC000954302680B4605D051699169009180F8DC
:102FD0003C3038BD556825F480655560E2435407A0
:102FE00000D50121120601D5828900E0028B80F80C
:102FF0003C3092B2FEF79BF838BD00002DE9F0415D
:1030000090F83D300446C26A002120261E4F006819
:103010006FF48065082A01D0202A01D1282B04D022
:10302000212B17D04561BDE8F081E762426822F4A8
:10303000E0624260206845612068026822F4806294
:103040000260216384F83D6084F83E102046FEF75C
:10305000A9FAE8E7E7622122226384F83D6084F858
:103060003E10416821F4E0614160206845612068BC
:10307000016821F4806101602046FFF73BFC204697
:10308000FEF7DDFACFE700000000FFFFF8B590F88B
:103090003D6004460068416821F4E06141602068B9
:1030A000002541690091016841F00101016020683B
:1030B000016821F48061016020684168090520D51C
:1030C000474F222E48D02A2E46D0616B09684968A6
:1030D0006185618D19B1216C41F004012164416861
:1030E00021F400614160606BFDF715FF012808D0F5
:1030F000606B0765606BFDF7FCFE10B1606B016DE6
:103100008847608D08B320684169C943490708D4DE
:103110000069616A0870606A401C6062608D401ED0
:10312000608520684169C943490608D40069616A1D
:103130000870606A401C6062608D401E6085608D12
:1031400018B1206C40F004002064206C00B32046CD
:10315000BDE8F840FFF7D6BBA16B096849686185F7
:10316000618D19B1216C41F004012164416821F4A1
:1031700000614160A06BFDF7CEFE0128C1D0A06BBD
:103180000765A06BFDF7B5FE0028BAD0A06BB6E7C7
:103190002A2E06D12563282084F83D002046FEF71C
:1031A0004DFA94F83D10202028290DD0216B2229BA
:1031B00001D0222E07D1256384F83D0084F83E50CB
:1031C0002046FEF73BFAF8BD0649E162256384F824
:1031D0003D0084F83E502046FEF7E4F9F8BD0000BB
:1031E000392800080000FFFF0F4A10B500231468BB
:1031F00000280BDAC0F100006063106883630029C7
:1032000009DD1068C1631068036410BD6363F4DDF9
:103210001468A063F3E71068C363F4DAC1F1000037
:103220001168086410BD00007001002070B586B000
:1032300014216846FDF71AF822480024016841F07D
:1032400080010160016801F080010591016841F091
:1032500004010160016801F004010591016841F079
:1032600001010160016801F001010591016841F06F
:10327000020101600068144E00F002000590002277
:1032800020213046FDF746FF01254FF488100095B8
:10329000CDE9010469460D48FDF74EFE202000905F
:1032A000CDE90154694630460394FDF745FE0022FE
:1032B00011460620FEF72CFA0620FEF71BFA06B090
:1032C00070BD00003038024000000240000802409B
:1032D0000D4810B50B4901600C49416000214FF4C5
:1032E00080428160C0E9031241618161C161016274
:1032F000FEF794F8002803D0BDE81040FDF7AEBDFE
:1033000010BD000000540040D4000020A086010041
:1033100010B58CB024216846FCF7A8FF002415489E
:1033200009944FF080410A94C0E90014611EC0E97D
:103330000241046184610320CDE900040120CDE94C
:1033400002040494CDE905400794694609480894AD
:10335000FEF73EFD08B1FDF781FD099409A9054876
:103360000A94FEF7EDFC002801D0FDF777FD0CB0C4
:1033700010BD00002801002010B58AB00024079479
:103380001C2168460894FCF771FF2348214901601D
:103390004721C0E901146321C0E903148461FEF7E9
:1033A000A5FE08B1FDF75AFD079407A91A4808942D
:1033B000FEF7C6FC08B1FDF751FD602000906420C7
:1033C000CDE901040022694613480494FEF728FE63
:1033D00008B1FDF743FD042269460F480194FEF74A
:1033E0001FFE08B1FDF73AFD082269460A48FEF7BC
:1033F00017FE08B1FDF732FD0C2269460648FEF7BC
:103400000FFE08B1FDF72AFD0348FEF7CDFD0AB017
:1034100010BD0000000400407001002010B58CB009
:1034200024216846FCF722FF002416480994144919
:103430000A94C0E900144FF6FF71C0E9024104612B
:1034400084610320CDE900040120CDE90204049445
:10345000CDE90540079469460A480894FEF7B8FC90
:1034600008B1FDF7FBFC099409A906480A94FEF788
:1034700067FC002801D0FDF7F1FC0CB010BD000086
:1034800000080040B80100200C4810B50A4901604E
:103490004FF416514160002181600C22C160C0E9E7
:1034A00004128161C161FFF709F8002803D0BDE86B
:1034B0001040FDF7D3BC10BD0048004000020020C2
:1034C0000C4810B50A4901604FF4E1214160002128
:1034D00081600C22C160C0E904128161C161FEF704
:1034E000EDFF002803D0BDE81040FDF7B7BC10BDCC
:1034F0000014014048020020FEE7FEE790ED031AA9
:1035000031EE401A90ED040A01EE200A80ED040A23
:10351000D0ED071AB4EEE10AF1EE10FA02DDC0EDCB
:10352000041A08E090ED062AB4EEC20AF1EE10FA91
:1035300001D280ED042A90ED050A31EE400A80EEBA
:10354000202A90ED010AD0ED040A20EE200AD0EDE9
:10355000000A00EE810AD0ED020A80ED051A00EEA5
:10356000820AF4EEC01AF1EE10FA02D2B0EE610A4D
:103570007047D0ED060AF4EEC00AF1EE10FAF7DD5E
:10358000B0EE600A7047000080EC030A9FED060A67
:1035900080ED030A80ED040A80ED050AC0ED061AED
:1035A00080ED072A70470000000000007047704758
:1035B00030B52DED028B8DB06423052221492248C0
:1035C000FFF712F8002839D11E480178C90735D015
:1035D00041788278490841EAC211490800EE101A80
:1035E000DFED1A0AB0F80300B8EE400A9FED181A92
:1035F00020EE208A00EE100AF5EE000AB8EE400A2E
:1036000060EE200A80EE810A10EE100AFCF740FE00
:1036100004460D4618EE100AFCF73AFE8DE833001A
:103620000CA2202104A800F037FB04A8FCF729FE17
:1036300082B2642304A90C48FFF7A0F80DB0BDECDA
:10364000028B30BD58000020480200200000803C62
:1036500000007A44413A252E32662C443A252E3217
:1036600066206D0D0A0000000002002008B506A1CA
:103670006423096800918DF801000222694603481D
:10368000FFF77CF808BD0000A500000048020020FC
:103690002020FFF7EBBF0168486A002200B24A62AF
:1036A00070477047FDF7CCBF10B594B03421684621
:1036B000FCF7DCFD14210DA8FCF7D8FD1848002408
:1036C000016841F080510160006800F08050129064
:1036D0001448016821F4404141F4804101600068D0
:1036E000069400F4404012900220009001200390C4
:1036F000102004906846FEF743F908B172B6FEE761
:103700000F20CDE90D040F94109400210DA8119401
:10371000FEF730F8002801D072B6FEE714B010BDF5
:1037200040380240007000400248016841F47001D6
:103730000160704788ED00E0F0B50268274B284D26
:10374000284E294F294C4FF0804C984209D06045B3
:1037500007D0A84205D0B04203D0B84201D0A04261
:1037600004D122F0700E4A6842EA0E0298421BD041
:10377000604519D0A84217D0B04215D0B84213D036
:10378000A04211D01A4DA8420ED01A4DA8420BD01B
:10379000194DA84208D0194DA84205D0184DA8428D
:1037A00002D0184DA84203D122F44075CA682A43BA
:1037B0004D6922F080022A438D68C5620D688562DA
:1037C000984201D0A04201D109690163016841F02A
:1037D00004010160012141610260F0BD000001406F
:1037E0000004004000080040000C004000040140BC
:1037F00000400140004401400048014000180040E2
:10380000001C00400020004010B501F01F03012102
:10381000046A99408C430462016A9A401143016230
:1038200010BD0000F0B5036A026A22F001020262D4
:1038300042688469124E24F073050C682C4323F00F
:1038400002058B682B430D4DA84201D0B04205D133
:1038500023F00807CB683B4323F00403A84201D0C0
:10386000B04205D14D6922F4407215438A692A435A
:1038700042608461496841630362F0BD0000014019
:1038800000040140F0B5026A036A23F010030362EA
:10389000436884690D6824F4E64444EA05248D688D
:1038A00022F0200242EA05120F4D104EA84201D02C
:1038B000B04206D1CF6822F0800242EA071222F01D
:1038C0004002A84201D0B04207D14D6923F44063C1
:1038D00043EA85038D6943EA85034360846149684F
:1038E00081630262F0BD000000000140000401405D
:1038F000F0B5026A036A23F4807303624368C46903
:1039000022F4007224F073050C68124E2C438D686B
:1039100042EA05220E4DA84201D0B04206D1CF683E
:1039200022F4006242EA072222F48062A84201D017
:10393000B04207D14D6923F4405343EA05138D6922
:1039400043EA05134360C4614968C1630262F0BD84
:10395000000001400004014030B5046A026A22F40C
:10396000805202624268C3690D6823F4E64343EA69
:1039700005238D6824F4005444EA0534084DA84218
:1039800002D0084DA84204D14D6922F4804242EA97
:1039900085124260C36149680164046230BD000061
:1039A000000001400004014010B5806B0021C1857A
:1039B000FEF743FC10BD01680C3151E8002F22F4E2
:1039C000907241E80023002BF5D10168143151E8D1
:1039D000002F22F0010241E80023002BF5D1016BFA
:1039E000012909D101680C3151E8002F22F01002A1
:1039F00041E80023002BF5D1202180F8421000215E
:103A00000163704708B590F84210222901D00220C6
:103A100008BD82684FF480539A4201D1016921B1F7
:103A2000816A9A421BD04AB10AE00268816A5268F0
:103A3000C2F308020A80816A891C08E0026972B137
:103A40000268526802F07F020A70816A491C816232
:103A5000C18D491E0904090CC18503D01BE0026811
:103A60005268F1E70168CA6822F02002CA60016862
:103A7000CA6822F48072CA6001684A6922F00102B1
:103A80004A61202180F8421000214163026B012A23
:103A900003D0FEF70FFE002008BD016301680C3162
:103AA00051E8002F22F0100241E80023002BF5D14D
:103AB00001680A68D20602D50A6849680091818DBA
:103AC000FEF7BAFBE7E7000070B50446006801693D
:103AD000E26821F44051114301612169A068E26963
:103AE00008436169114308432168CA6849F20C63BD
:103AF0009A430243CA6020684169A26921F4407177
:103B00001143416131492068884202D030498842DE
:103B100002D1FDF7D9FE01E0FDF7C6FEE269002300
:103B2000192164253226B2F5004F626828D0A0FB27
:103B30000101930F9200FCF761FB0146B0FBF5F029
:103B40006FF01802504301EB800006EB0010B0FB51
:103B5000F5F000F0F002B1FBF5F002EB0012B1FB62
:103B6000F5F06FF01803584301EB800006EB0010EE
:103B7000B0FBF5F000F00F0021681044886070BDC4
:103B8000A0FB010192185B41FCF738FB0146B0FB3A
:103B9000F5F00201B1FBF5F06FF01803584301EBAB
:103BA000800006EBC000B0FBF5F000F0F80002EB7F
:103BB0004002B1FBF5F0584301EB800006EBC0007A
:103BC000B0FBF5F000F00700D6E700000010014060
:103BD0000014014081628285C28500214164222156
:103BE00080F84210016921B10168CA6842F480720C
:103BF000CA6001684A6942F001024A610068C1680E
:103C000041F02001C160002070472DE9F84398463B
:103C100017460D460446089E24E0701C22D0FDF78E
:103C20007FFAA0EB0800B0421AD8CEB12068C16874
:103C3000490717D5802D15D0402D13D00168C943F1
:103C400009070FD401680025406800902046FFF75F
:103C5000B2FE0820606484F840500120BDE8F8837B
:103C60000320FBE72068006835EA000004D000204C
:103C7000B842D2D00020F1E70120F9E70148FEF771
:103C8000DDBA0000000200200148FEF7D7BA0000AC
:103C900048020020FEE700000FB41CB502460020D9
:103CA00007AC00290BD0491ECDE90021054B6A461F
:103CB0002146069800F080FB009A002111701CBC80
:103CC0005DF814FBE74A00084100080218BF042011
:103CD0000A0E18BF40F001004FF07F4232EA0101A6
:103CE00008BF40F00200012808BF052070470907FF
:103CF000090E002804DB00F1E02080F80014704772
:103D000000F00F0000F1E02080F8141D7047000063
:103D100010EE101A08B5444A6846B2EB410F28D994
:103D20004FF0E640B0EB410F94BF00204FF0FF3062
:103D300000900098002861DB60EE000A10F0010F8F
:103D400045D010F0020FDFED391A9FED391A00EE61
:103D5000E11ADFED381A40EE811A21EEA01AF0EEDA
:103D6000400A40EE010A08BFF1EE600AB0EE600AB8
:103D700008BD314B21F0004293423CD911F0004F75
:103D8000DFED2E0A20EE201ADFED2D0A19BF31EEED
:103D9000601A71EE200A31EE201A71EE600ABDEE53
:103DA000E01A11EE100A9FED271A00F0030000EE52
:103DB000C10A9FED251A009000EEC10A9FED231A5B
:103DC00000EEC10A9FED221A00EEC10AB1E79FED95
:103DD000211A9FED210A10F0020F00EE810A9FEDDB
:103DE0001F1A00EE801AB7EE000A00EE810A18BF13
:103DF000B1EE400A08BD00F05DF99AE710EE100A36
:103E00004000B0F17F4F3CBFB7EE000A08BD07D1BC
:103E10004FF0010000F008FABDE8084000F03AB9A0
:103E2000BDE8084000F032B9B61F927E336D4C39C0
:103E3000DA82083CA0AA2ABE490E494683F9223FED
:103E40000000004B0000C93F00A0FD390020A23354
:103E50001A61342CB93AB2BACA9F2A3DDDFFFFBEBF
:103E600010B52DED028BB0EE408A18EE100AFCF76B
:103E700057FA01EE100A18EE100AB7EE000A78EEB3
:103E8000410A10F0004F4FF07F4010EE901A12D010
:103E9000B1F13F4F24BF10EE901AB0EB410F12D298
:103EA00010EE901AB1F17C5F1CDD10EE901AB0EBB1
:103EB000410F17D314E0B1F13F4F07D910EE901A1C
:103EC000B0EB410F02D331EE401A0BE010EE901A26
:103ED000B1F17C5F06DB10EE901AB0EB410F01D31D
:103EE00031EE001A18EE100ABDEC028B11EE101A1A
:103EF00061F31E0000EE100A10BD000000B510EEC8
:103F0000101A2DED028B81B0524A6846B2EB410F78
:103F10002ED94FF0E640B0EB410F94BF00204FF098
:103F2000FF3000900098B0EE408A00286ADB10F065
:103F3000010F4BD068EE080A9FED471A9FED470A24
:103F400000EE810A9FED461A10F0020F00EE801A73
:103F5000B7EE000A00EE810A02BF01B0BDEC028B91
:103F600000BD00BF01B0B1EE400ABDEC028B00BD48
:103F70003C4B21F00042934241D911F0004FDFED5C
:103F80003A0A20EE201ADFED390A19BF31EE601A25
:103F900071EE200A31EE201A71EE600ABDEEE01AD1
:103FA00011EE100A9FED321A00F0030000EEC10A74
:103FB0009FED301A009000EEC10A9FED2F1A00EE1F
:103FC000C10A9FED2E1A00EEC10AABE728EE080ADF
:103FD0009FED2B1ADFED2B0A10F0020F40EE410A85
:103FE0009FED291A00EE201A61EE000AB0EE480A91
:103FF00008EE200AB6D101B0BDEC028B00BD00F086
:1040000059F88FE718EE100A4000B0F17F4F0DD23B
:1040100018EE100AFFF758FE042808BF00F042F817
:10402000B0EE480A01B0BDEC028B00BD09D1012001
:1040300000F0FAF801B0BDEC028B5DF804EB00F083
:1040400029B801B0B0EE480ABDEC028B5DF804EB74
:1040500000F01CB8B61F927EB93AB2BACA9F2A3D88
:10406000DDFFFFBE490E494683F9223F0000004BA9
:104070000000C93F00A0FD390020A2331A61342C92
:10408000336D4C39DA82083CA0AA2ABE30EE000A11
:1040900070470000DFED020A80EEA00A70470000C2
:1040A000000000009FED020A20EE000A70470000A9
:1040B000000000102DE9F0014FF07F42B2EB410FFC
:1040C0009FBF4FF0FF310160BDE8F00170474FF036
:1040D000004242EA0123C1F3C752783A551112F067
:1040E0001F0C434CCCF120067C44C1F3C752A2F113
:1040F00078024FEA621204EB820254F8254008BFAE
:10410000D2E9015612D0556804FA0CF425FA06F7E4
:104110003C43976805FA0CF527FA06F8D26807FAC7
:104120000CFCF24045EA08054CEA0206A4FB034CED
:10413000A5FB0352A6FB03631D449D4234BF012629
:1041400000261319334416B1934202D903E0934277
:1041500001D2012200E00022624402F1200C92060A
:10416000DC0C42EA443200EE102A5B03DFED210A48
:10417000F8EEC01A00EE103A4FEA9C1C11F0004F06
:10418000B8EE400AC0F800C020EE201A00EE105A27
:10419000DFED190AB8EE400A20EE200A71EE810A1E
:1041A00070EE800A10EE902A02F500626FF30B02A7
:1041B00000EE902A70EEE11A31EEC11ADFED101A0E
:1041C00030EE411A9FED0D0A20EE800A01EE210A21
:1041D0009FED0C1A00EE810A04BFBDE8F0017047A4
:1041E000CCF180510160BDE8F001B1EE400A7047AA
:1041F000F00A0000000000360000802C22AAFD29F1
:10420000DB0FC92F0000C92F02E008C8121F08C128
:10421000002AFAD170477047002001E001C1121F47
:10422000002AFBD170470000014908607047000078
:10423000700000202DE9FF5F82B00021DDE904302D
:10424000020DDDF840B0034318D044F61050A2F23E
:10425000FF3242431514119801281FD0A5EB0B0023
:10426000401C5FEA000A4FF000064E4FDFF838911D
:10427000B046504615D5CAF1000413E01198012448
:104280004AA3012801D16FEA0B010298119AC0E9F3
:104290000031C0E9024206B0BDE8F09FCBF100005A
:1042A000DFE704460021404A491842EB0450CDE9BB
:1042B000001012E0E00707D032463B464046494630
:1042C000FCF7F3F88046894632463B4610461946CD
:1042D000FCF7EBF806460F466410002CEAD1DDE946
:1042E0000401DDE90023BAF1000F06DAFCF7DDF87E
:1042F00042464B46FCF7D9F805E0FCF748F9424640
:104300004B46FCF744F904460E460022284BFCF7C6
:10431000C5F903D84FF0FF30014607E00022254BD6
:1043200020463146FCF71AF8FCF7A0F9102409E002
:10433000002C0ADB0A220023FBF760FF039B3032CC
:104340001A55641E50EA0102F2D1641C039AC4F1AA
:1043500011031444119A012A03D0012208430DD1FC
:104360000AE0084304D000204FF0110B119072E7CF
:10437000A3EB0B056D1E0DE05B4504DD4FF0000265
:1043800005F1010504E003DA4FF00002A5F1010593
:10439000002AECD002981199C0E90231C0E9004529
:1043A00079E70000000014400000F03F30000000FA
:1043B0000000F0430000E03F2DE9FF4F95B09B4621
:1043C0008946064600250FE2252877D10024274696
:1043D000F84A0121059400E0044316F8013F203B10
:1043E00001FA03F01042F7D130782A2811D06FF08B
:1043F0002F033078A0F13002092A16D8059A44F02C
:10440000020402EB820203EB42021044761C059088
:10441000EFE759F8042B0592002A03DA504244F4DE
:104420000054059044F00204761C30782E2816D1F2
:1044300016F8010F44F004042A280DD06FF02F0263
:104440003078A0F13003092B09D807EB870302EB82
:104450004303C718761CF3E759F8047B761C3078C1
:104460006C280FD006DC4C2817D068280DD06A289D
:1044700014D104E0742810D07A280FD10DE044F450
:1044800000140AE044F4801401E044F4401472780B
:10449000824202D104F58014761C761C307866289E
:1044A0000BD013DC582877D009DC002875D04528BC
:1044B000F6D04628F4D047281AD19DE118E06328A9
:1044C00035D0642879D0652812D195E1702873D051
:1044D00008DC6728F1D069286FD06E280DD06F28CE
:1044E00006D1B5E073282CD0752875D0782874D003
:1044F0005A46179990476D1C75E1C4F30250022883
:1045000009D003280DD0D9F8001004280DD00D6073
:1045100009F1040967E1D9F80010EA17C1E900526E
:10452000F6E7D9F800100D80F2E70D70F0E719F802
:10453000041B8DF8001000208DF80100EA460120D0
:1045400003E059F804AB4FF0FF3061074FF0000172
:1045500002D40DE008F101018846B9420FDA804526
:10456000F8DB1AF808100029F4D108E008F101017D
:1045700088468142FADB1AF808100029F6D105981E
:104580005B46A0EB080721463846179A00F094FADC
:10459000284400EB080507E04DE029E10DE01AF89A
:1045A000010B5A4617999047B8F10108F7D25B46BC
:1045B00021463846179A13E142E00A220092C4F3DA
:1045C00002524FF0000A022A08D059F804CB032AFD
:1045D0004FEAEC710AD00DE029E02AE009F1070169
:1045E00021F00702F2E802C1914609E00FFA8CFCC3
:1045F0004FEAEC71042A03D14FFA8CFC4FEAEC71BC
:10460000002907DA0A460021DCF1000C61EB020107
:104610002D2202E0220504D52B228DF80420012250
:1046200003E0E20701D02022F7E7904659E00A2193
:1046300002E010220DE010214FF0000A00910BE083
:1046400010224FF0000A44F004040827009203E00F
:1046500008224FF0000A0092C4F30252022A05D049
:1046600059F804CB0021032A08D009E009F1070119
:1046700021F00702F2E802C1914605E01FFA8CFC26
:10468000042A01D10CF0FF0C4FF00008220728D5B6
:10469000702806D0009B83F0100353EA0A0305D06C
:1046A0000EE040228DF80420012208E05CEA0102BD
:1046B00006D030228DF804208DF8050002229046A5
:1046C000009B83F0080353EA0A030AD15CEA010263
:1046D00001D1620705D530228DF804204FF0010882
:1046E0007F1E582804D034A003900EA802900DE03D
:1046F00036A0F9E753466046009AFBF77FFD8446F3
:104700000398825C0298401E029002705CEA0100ED
:10471000F0D1029806A9081A00F1200A600702D514
:1047200024F4803400E00127574502DDA7EB0A009E
:1047300000E0002000EB0A01009005984144401A77
:104740000590E00306D45B462146179A059800F0D1
:10475000B3F90544002706E001A85A46C05D179941
:1047600090476D1C7F1C4745F6DBE0030CD55B468C
:104770002146179A059800F09FF9054404E030207F
:104780005A46179990476D1C0099481E00900029C1
:10479000F5DC08E0029802995A460078491C02911B
:1047A000179990476D1CBAF10001AAF1010AF1DCDA
:1047B00065E10000092801003031323334353637E5
:1047C000383961626364656600000000303132335D
:1047D00034353637383941424344454600000000FD
:1047E00000F058F90544761C307800287FF4ECADD1
:1047F00019B02846BDE8F08F620700D4062709F1FA
:10480000070222F0070CFCE80223E14603F000480F
:104810005FEA080C02D00FF2702C0DE05FEA045C36
:1048200002D50FF2682C07E05FEAC47C02D00FF2D9
:10483000602C01E0AFF2700C4FF0FF3823F0004322
:10484000CDF850C065280CD006DC452809D0462894
:104850001DD047283DD13DE0662818D067287ED17D
:1048600038E00021112F01DB112000E0781CCDE998
:10487000000106A90EA8FFF7DDFCDDE90F010E9A85
:1048800003910021009207F1010A04914DE04FF0DD
:1048900000400097CDE9011006A90EA8FFF7CAFC59
:1048A000DDE90F0203920E9B11990022DDF80CA0A6
:1048B0000093049211B9791C00EB010AB7EB0A00CE
:1048C00004D4C0F1FF3007F1010A0490AAEB0700FD
:1048D000019044E0012F00DA01270021112F01DDB2
:1048E000112000E03846CDE9000106A90EA8FFF727
:1048F000A1FCDDE90F010E9A0391002104910092C1
:10490000BA4621070CD40399514500DA8A46BAF118
:10491000010F05DD009AAAF10101515C302908D090
:10492000B84202DA10F1040F06DA0121CDE90110D4
:1049300015E0AAF10101E9E7002805DC049901442A
:104940000491AAEB000102E0411C514500DD8A46BA
:104950000499401A401C01904FF00040029020073B
:1049600004D40198504501DBCDF8048000208DF877
:104970004F0002980DF14F07B0F1004F25D02B20CA
:104980000E9002984FF0020800280CDA4042029084
:104990002D200E9007E00A210298FBF78CFC3031A5
:1049A000029007F8011DB8F10001A8F10108F2DC3E
:1049B00002980028EFD1791E0E980870307800F028
:1049C000200040F0450007F8020D12A8C01B00F1BE
:1049D00007081498007800B1012000EB0A01019843
:1049E00001EBE07105984144401A401E0590E00338
:1049F00006D45B462146179A059800F05DF80544F9
:104A00001498007818B15A46179990476D1CE00326
:104A100024D55B462146179A059800F04DF80544C9
:104A20001CE00498002807DBDDE90301884203DD70
:104A30000098405C179901E0179930205A4690473A
:104A4000049805F10105401C04900198401E019056
:104A500004D12E205A46179990476D1CBAF10001D7
:104A6000AAF1010ADDDC05E017F8010B5A46179997
:104A700090476D1CB8F10001A8F10108F4DC5B4619
:104A80002146179A0598ABE62D0000002B00000088
:104A9000200000002DE9F041044600251E4617467F
:104AA000880404D405E039462020B0476D1C641EFC
:104AB000F9D52846BDE8F0812DE9F04104460025EE
:104AC0001E469046C80301D5302700E02027880401
:104AD00004D505E041463846B0476D1C641EF9D543
:104AE0002846BDE8F0814A68002A06D00A68531CAF
:104AF0000B6010704868401E48607047FCF7A8FDC6
:104B0000FEF7D2FDFEF792FBFEF736FCFEF7BCFC8B
:104B1000FEF7FEFBFEF782FCFEF7DAFBFEF7D0FCA9
:104B200000212548FDF724FB04212348FDF720FB45
:104B300008212148FDF71CFB0C211F48FDF718FB3D
:104B40003C211E48FDF7E8F93C211D48FDF7E4F93A
:104B500000210846FEF748FBFCF7B2F8FBF7CCFE55
:104B6000FBF76CFEFBF7E6FEFEF721FDFEF790FD7E
:104B70000025FCF7D5FA0446FCF7D2FA4FF47A7612
:104B8000FCF7CEFA001B0A2806D3FCF7BBF8FCF7AB
:104B900005F8FCF7C5FA0446FEF70AFDFBF7B6FE7A
:104BA000FCF7BEFA401BB042EAD9FBF747FEFCF720
:104BB000B7FA0546E4E70000700100202801002054
:104BC000B801002000000000000000000102030402
:104BD00006070809000000000102030400000000AD
:104BE0006E83F9A22915444ED15727FCC0DD34F558
:104BF000999562DB4190433CAB6351FE1C4C00082D
:104C0000000000207400000008420008904C0008DA
:104C1000740000201C06000018420008000000007C
:104C20000000000000000000000000000000000084
:104C30000000000000000000000000000000000074
:104C40000000000000000000000000000000000064
:104C5000DB0FC93F00000000000000000000000062
:104C60000000000000000000000000000000000044
:104C70000000000000000000000000000100000033
:104C800010000000000000000024F40000000000FC
:04000005080001C529
:00000001FF
